{
  "_format": "hh-sol-artifact-1",
  "contractName": "MyERC20",
  "sourceName": "contracts/MyERC20.sol",
  "abi": [
    {
      "inputs": [
        {
          "internalType": "string",
          "name": "_name",
          "type": "string"
        },
        {
          "internalType": "string",
          "name": "_symbol",
          "type": "string"
        },
        {
          "internalType": "uint8",
          "name": "_decimals",
          "type": "uint8"
        },
        {
          "internalType": "uint256",
          "name": "initialSupply",
          "type": "uint256"
        },
        {
          "internalType": "uint256",
          "name": "_tokenPrice",
          "type": "uint256"
        }
      ],
      "stateMutability": "nonpayable",
      "type": "constructor"
    },
    {
      "anonymous": false,
      "inputs": [
        {
          "indexed": true,
          "internalType": "address",
          "name": "owner",
          "type": "address"
        },
        {
          "indexed": true,
          "internalType": "address",
          "name": "spender",
          "type": "address"
        },
        {
          "indexed": false,
          "internalType": "uint256",
          "name": "value",
          "type": "uint256"
        }
      ],
      "name": "Approval",
      "type": "event"
    },
    {
      "anonymous": false,
      "inputs": [
        {
          "indexed": true,
          "internalType": "address",
          "name": "from",
          "type": "address"
        },
        {
          "indexed": true,
          "internalType": "address",
          "name": "to",
          "type": "address"
        },
        {
          "indexed": false,
          "internalType": "uint256",
          "name": "value",
          "type": "uint256"
        }
      ],
      "name": "Transfer",
      "type": "event"
    },
    {
      "inputs": [
        {
          "internalType": "address",
          "name": "owner",
          "type": "address"
        },
        {
          "internalType": "address",
          "name": "spender",
          "type": "address"
        }
      ],
      "name": "allowance",
      "outputs": [
        {
          "internalType": "uint256",
          "name": "",
          "type": "uint256"
        }
      ],
      "stateMutability": "view",
      "type": "function"
    },
    {
      "inputs": [
        {
          "internalType": "address",
          "name": "spender",
          "type": "address"
        },
        {
          "internalType": "uint256",
          "name": "amount",
          "type": "uint256"
        }
      ],
      "name": "approve",
      "outputs": [
        {
          "internalType": "bool",
          "name": "",
          "type": "bool"
        }
      ],
      "stateMutability": "nonpayable",
      "type": "function"
    },
    {
      "inputs": [
        {
          "internalType": "address",
          "name": "account",
          "type": "address"
        }
      ],
      "name": "balanceOf",
      "outputs": [
        {
          "internalType": "uint256",
          "name": "",
          "type": "uint256"
        }
      ],
      "stateMutability": "view",
      "type": "function"
    },
    {
      "inputs": [],
      "name": "buyTokens",
      "outputs": [],
      "stateMutability": "payable",
      "type": "function"
    },
    {
      "inputs": [],
      "name": "decimals",
      "outputs": [
        {
          "internalType": "uint8",
          "name": "",
          "type": "uint8"
        }
      ],
      "stateMutability": "view",
      "type": "function"
    },
    {
      "inputs": [
        {
          "internalType": "uint256",
          "name": "amount",
          "type": "uint256"
        }
      ],
      "name": "mint",
      "outputs": [],
      "stateMutability": "nonpayable",
      "type": "function"
    },
    {
      "inputs": [],
      "name": "name",
      "outputs": [
        {
          "internalType": "string",
          "name": "",
          "type": "string"
        }
      ],
      "stateMutability": "view",
      "type": "function"
    },
    {
      "inputs": [],
      "name": "symbol",
      "outputs": [
        {
          "internalType": "string",
          "name": "",
          "type": "string"
        }
      ],
      "stateMutability": "view",
      "type": "function"
    },
    {
      "inputs": [],
      "name": "tokenPrice",
      "outputs": [
        {
          "internalType": "uint256",
          "name": "",
          "type": "uint256"
        }
      ],
      "stateMutability": "view",
      "type": "function"
    },
    {
      "inputs": [],
      "name": "totalSupply",
      "outputs": [
        {
          "internalType": "uint256",
          "name": "",
          "type": "uint256"
        }
      ],
      "stateMutability": "view",
      "type": "function"
    },
    {
      "inputs": [
        {
          "internalType": "address",
          "name": "recipient",
          "type": "address"
        },
        {
          "internalType": "uint256",
          "name": "amount",
          "type": "uint256"
        }
      ],
      "name": "transfer",
      "outputs": [
        {
          "internalType": "bool",
          "name": "",
          "type": "bool"
        }
      ],
      "stateMutability": "nonpayable",
      "type": "function"
    },
    {
      "inputs": [
        {
          "internalType": "address",
          "name": "sender",
          "type": "address"
        },
        {
          "internalType": "address",
          "name": "recipient",
          "type": "address"
        },
        {
          "internalType": "uint256",
          "name": "amount",
          "type": "uint256"
        }
      ],
      "name": "transferFrom",
      "outputs": [
        {
          "internalType": "bool",
          "name": "",
          "type": "bool"
        }
      ],
      "stateMutability": "nonpayable",
      "type": "function"
    }
  ],
  "bytecode": "0x608060405234801561001057600080fd5b5060405161219738038061219783398181016040528101906100329190610331565b846000908161004191906105fb565b50836001908161005191906105fb565b5082600260006101000a81548160ff021916908360ff1602179055508260ff16600a61007d919061082f565b82610088919061087a565b600381905550600354600560003373ffffffffffffffffffffffffffffffffffffffff1673ffffffffffffffffffffffffffffffffffffffff16815260200190815260200160002081905550806004819055503373ffffffffffffffffffffffffffffffffffffffff16600073ffffffffffffffffffffffffffffffffffffffff167fddf252ad1be2c89b69c2b068fc378daa952ba7f163c4a11628f55a4df523b3ef60035460405161013b91906108cb565b60405180910390a350505050506108e6565b6000604051905090565b600080fd5b600080fd5b600080fd5b600080fd5b6000601f19601f8301169050919050565b7f4e487b7100000000000000000000000000000000000000000000000000000000600052604160045260246000fd5b6101b48261016b565b810181811067ffffffffffffffff821117156101d3576101d261017c565b5b80604052505050565b60006101e661014d565b90506101f282826101ab565b919050565b600067ffffffffffffffff8211156102125761021161017c565b5b61021b8261016b565b9050602081019050919050565b60005b8381101561024657808201518184015260208101905061022b565b60008484015250505050565b6000610265610260846101f7565b6101dc565b90508281526020810184848401111561028157610280610166565b5b61028c848285610228565b509392505050565b600082601f8301126102a9576102a8610161565b5b81516102b9848260208601610252565b91505092915050565b600060ff82169050919050565b6102d8816102c2565b81146102e357600080fd5b50565b6000815190506102f5816102cf565b92915050565b6000819050919050565b61030e816102fb565b811461031957600080fd5b50565b60008151905061032b81610305565b92915050565b600080600080600060a0868803121561034d5761034c610157565b5b600086015167ffffffffffffffff81111561036b5761036a61015c565b5b61037788828901610294565b955050602086015167ffffffffffffffff8111156103985761039761015c565b5b6103a488828901610294565b94505060406103b5888289016102e6565b93505060606103c68882890161031c565b92505060806103d78882890161031c565b9150509295509295909350565b600081519050919050565b7f4e487b7100000000000000000000000000000000000000000000000000000000600052602260045260246000fd5b6000600282049050600182168061043657607f821691505b602082108103610449576104486103ef565b5b50919050565b60008190508160005260206000209050919050565b60006020601f8301049050919050565b600082821b905092915050565b6000600883026104b17fffffffffffffffffffffffffffffffffffffffffffffffffffffffffffffffff82610474565b6104bb8683610474565b95508019841693508086168417925050509392505050565b6000819050919050565b60006104f86104f36104ee846102fb565b6104d3565b6102fb565b9050919050565b6000819050919050565b610512836104dd565b61052661051e826104ff565b848454610481565b825550505050565b600090565b61053b61052e565b610546818484610509565b505050565b5b8181101561056a5761055f600082610533565b60018101905061054c565b5050565b601f8211156105af576105808161044f565b61058984610464565b81016020851015610598578190505b6105ac6105a485610464565b83018261054b565b50505b505050565b600082821c905092915050565b60006105d2600019846008026105b4565b1980831691505092915050565b60006105eb83836105c1565b9150826002028217905092915050565b610604826103e4565b67ffffffffffffffff81111561061d5761061c61017c565b5b610627825461041e565b61063282828561056e565b600060209050601f8311600181146106655760008415610653578287015190505b61065d85826105df565b8655506106c5565b601f1984166106738661044f565b60005b8281101561069b57848901518255600182019150602085019450602081019050610676565b868310156106b857848901516106b4601f8916826105c1565b8355505b6001600288020188555050505b505050505050565b7f4e487b7100000000000000000000000000000000000000000000000000000000600052601160045260246000fd5b60008160011c9050919050565b6000808291508390505b60018511156107535780860481111561072f5761072e6106cd565b5b600185161561073e5780820291505b808102905061074c856106fc565b9450610713565b94509492505050565b60008261076c5760019050610828565b8161077a5760009050610828565b8160018114610790576002811461079a576107c9565b6001915050610828565b60ff8411156107ac576107ab6106cd565b5b8360020a9150848211156107c3576107c26106cd565b5b50610828565b5060208310610133831016604e8410600b84101617156107fe5782820a9050838111156107f9576107f86106cd565b5b610828565b61080b8484846001610709565b92509050818404811115610822576108216106cd565b5b81810290505b9392505050565b600061083a826102fb565b9150610845836102fb565b92506108727fffffffffffffffffffffffffffffffffffffffffffffffffffffffffffffffff848461075c565b905092915050565b6000610885826102fb565b9150610890836102fb565b925082820261089e816102fb565b915082820484148315176108b5576108b46106cd565b5b5092915050565b6108c5816102fb565b82525050565b60006020820190506108e060008301846108bc565b92915050565b6118a2806108f56000396000f3fe6080604052600436106100a75760003560e01c80637ff9b596116100645780637ff9b596146101e457806395d89b411461020f578063a0712d681461023a578063a9059cbb14610263578063d0febe4c146102a0578063dd62ed3e146102aa576100a7565b806306fdde03146100ac578063095ea7b3146100d757806318160ddd1461011457806323b872dd1461013f578063313ce5671461017c57806370a08231146101a7575b600080fd5b3480156100b857600080fd5b506100c16102e7565b6040516100ce9190610d7c565b60405180910390f35b3480156100e357600080fd5b506100fe60048036038101906100f99190610e37565b610375565b60405161010b9190610e92565b60405180910390f35b34801561012057600080fd5b5061012961038c565b6040516101369190610ebc565b60405180910390f35b34801561014b57600080fd5b5061016660048036038101906101619190610ed7565b610396565b6040516101739190610e92565b60405180910390f35b34801561018857600080fd5b50610191610480565b60405161019e9190610f46565b60405180910390f35b3480156101b357600080fd5b506101ce60048036038101906101c99190610f61565b610493565b6040516101db9190610ebc565b60405180910390f35b3480156101f057600080fd5b506101f96104dc565b6040516102069190610ebc565b60405180910390f35b34801561021b57600080fd5b506102246104e2565b6040516102319190610d7c565b60405180910390f35b34801561024657600080fd5b50610261600480360381019061025c9190610f8e565b610570565b005b34801561026f57600080fd5b5061028a60048036038101906102859190610e37565b6105c0565b6040516102979190610e92565b60405180910390f35b6102a86105d7565b005b3480156102b657600080fd5b506102d160048036038101906102cc9190610fbb565b6106a5565b6040516102de9190610ebc565b60405180910390f35b600080546102f49061102a565b80601f01602080910402602001604051908101604052809291908181526020018280546103209061102a565b801561036d5780601f106103425761010080835404028352916020019161036d565b820191906000526020600020905b81548152906001019060200180831161035057829003601f168201915b505050505081565b600061038233848461072c565b6001905092915050565b6000600354905090565b60006103a38484846108f5565b6000600660008673ffffffffffffffffffffffffffffffffffffffff1673ffffffffffffffffffffffffffffffffffffffff16815260200190815260200160002060003373ffffffffffffffffffffffffffffffffffffffff1673ffffffffffffffffffffffffffffffffffffffff16815260200190815260200160002054905082811015610467576040517f08c379a000000000000000000000000000000000000000000000000000000000815260040161045e906110cd565b60405180910390fd5b610474853385840361072c565b60019150509392505050565b600260009054906101000a900460ff1681565b6000600560008373ffffffffffffffffffffffffffffffffffffffff1673ffffffffffffffffffffffffffffffffffffffff168152602001908152602001600020549050919050565b60045481565b600180546104ef9061102a565b80601f016020809104026020016040519081016040528092919081815260200182805461051b9061102a565b80156105685780601f1061053d57610100808354040283529160200191610568565b820191906000526020600020905b81548152906001019060200180831161054b57829003601f168201915b505050505081565b600081116105b3576040517f08c379a00000000000000000000000000000000000000000000000000000000081526004016105aa9061115f565b60405180910390fd5b6105bd3382610b61565b50565b60006105cd3384846108f5565b6001905092915050565b6000341161061a576040517f08c379a0000000000000000000000000000000000000000000000000000000008152600401610611906111f1565b60405180910390fd5b6000600454600260009054906101000a900460ff1660ff16600a61063e9190611373565b3461064991906113be565b610653919061142f565b905060008111610698576040517f08c379a000000000000000000000000000000000000000000000000000000000815260040161068f906114d2565b60405180910390fd5b6106a23382610b61565b50565b6000600660008473ffffffffffffffffffffffffffffffffffffffff1673ffffffffffffffffffffffffffffffffffffffff16815260200190815260200160002060008373ffffffffffffffffffffffffffffffffffffffff1673ffffffffffffffffffffffffffffffffffffffff16815260200190815260200160002054905092915050565b600073ffffffffffffffffffffffffffffffffffffffff168373ffffffffffffffffffffffffffffffffffffffff160361079b576040517f08c379a000000000000000000000000000000000000000000000000000000000815260040161079290611564565b60405180910390fd5b600073ffffffffffffffffffffffffffffffffffffffff168273ffffffffffffffffffffffffffffffffffffffff160361080a576040517f08c379a0000000000000000000000000000000000000000000000000000000008152600401610801906115f6565b60405180910390fd5b80600660008573ffffffffffffffffffffffffffffffffffffffff1673ffffffffffffffffffffffffffffffffffffffff16815260200190815260200160002060008473ffffffffffffffffffffffffffffffffffffffff1673ffffffffffffffffffffffffffffffffffffffff168152602001908152602001600020819055508173ffffffffffffffffffffffffffffffffffffffff168373ffffffffffffffffffffffffffffffffffffffff167f8c5be1e5ebec7d5bd14f71427d1e84f3dd0314c0f7b2291e5b200ac8c7c3b925836040516108e89190610ebc565b60405180910390a3505050565b600073ffffffffffffffffffffffffffffffffffffffff168373ffffffffffffffffffffffffffffffffffffffff1603610964576040517f08c379a000000000000000000000000000000000000000000000000000000000815260040161095b90611688565b60405180910390fd5b600073ffffffffffffffffffffffffffffffffffffffff168273ffffffffffffffffffffffffffffffffffffffff16036109d3576040517f08c379a00000000000000000000000000000000000000000000000000000000081526004016109ca9061171a565b60405180910390fd5b6000600560008573ffffffffffffffffffffffffffffffffffffffff1673ffffffffffffffffffffffffffffffffffffffff16815260200190815260200160002054905081811015610a5a576040517f08c379a0000000000000000000000000000000000000000000000000000000008152600401610a51906117ac565b60405180910390fd5b818103600560008673ffffffffffffffffffffffffffffffffffffffff1673ffffffffffffffffffffffffffffffffffffffff1681526020019081526020016000208190555081600560008573ffffffffffffffffffffffffffffffffffffffff1673ffffffffffffffffffffffffffffffffffffffff1681526020019081526020016000206000828254610aef91906117cc565b925050819055508273ffffffffffffffffffffffffffffffffffffffff168473ffffffffffffffffffffffffffffffffffffffff167fddf252ad1be2c89b69c2b068fc378daa952ba7f163c4a11628f55a4df523b3ef84604051610b539190610ebc565b60405180910390a350505050565b600073ffffffffffffffffffffffffffffffffffffffff168273ffffffffffffffffffffffffffffffffffffffff1603610bd0576040517f08c379a0000000000000000000000000000000000000000000000000000000008152600401610bc79061184c565b60405180910390fd5b60008111610c13576040517f08c379a0000000000000000000000000000000000000000000000000000000008152600401610c0a9061115f565b60405180910390fd5b8060036000828254610c2591906117cc565b9250508190555080600560008473ffffffffffffffffffffffffffffffffffffffff1673ffffffffffffffffffffffffffffffffffffffff1681526020019081526020016000206000828254610c7b91906117cc565b925050819055508173ffffffffffffffffffffffffffffffffffffffff16600073ffffffffffffffffffffffffffffffffffffffff167fddf252ad1be2c89b69c2b068fc378daa952ba7f163c4a11628f55a4df523b3ef83604051610ce09190610ebc565b60405180910390a35050565b600081519050919050565b600082825260208201905092915050565b60005b83811015610d26578082015181840152602081019050610d0b565b60008484015250505050565b6000601f19601f8301169050919050565b6000610d4e82610cec565b610d588185610cf7565b9350610d68818560208601610d08565b610d7181610d32565b840191505092915050565b60006020820190508181036000830152610d968184610d43565b905092915050565b600080fd5b600073ffffffffffffffffffffffffffffffffffffffff82169050919050565b6000610dce82610da3565b9050919050565b610dde81610dc3565b8114610de957600080fd5b50565b600081359050610dfb81610dd5565b92915050565b6000819050919050565b610e1481610e01565b8114610e1f57600080fd5b50565b600081359050610e3181610e0b565b92915050565b60008060408385031215610e4e57610e4d610d9e565b5b6000610e5c85828601610dec565b9250506020610e6d85828601610e22565b9150509250929050565b60008115159050919050565b610e8c81610e77565b82525050565b6000602082019050610ea76000830184610e83565b92915050565b610eb681610e01565b82525050565b6000602082019050610ed16000830184610ead565b92915050565b600080600060608486031215610ef057610eef610d9e565b5b6000610efe86828701610dec565b9350506020610f0f86828701610dec565b9250506040610f2086828701610e22565b9150509250925092565b600060ff82169050919050565b610f4081610f2a565b82525050565b6000602082019050610f5b6000830184610f37565b92915050565b600060208284031215610f7757610f76610d9e565b5b6000610f8584828501610dec565b91505092915050565b600060208284031215610fa457610fa3610d9e565b5b6000610fb284828501610e22565b91505092915050565b60008060408385031215610fd257610fd1610d9e565b5b6000610fe085828601610dec565b9250506020610ff185828601610dec565b9150509250929050565b7f4e487b7100000000000000000000000000000000000000000000000000000000600052602260045260246000fd5b6000600282049050600182168061104257607f821691505b60208210810361105557611054610ffb565b5b50919050565b7f45524332303a207472616e7366657220616d6f756e742065786365656473206160008201527f6c6c6f77616e6365000000000000000000000000000000000000000000000000602082015250565b60006110b7602883610cf7565b91506110c28261105b565b604082019050919050565b600060208201905081810360008301526110e6816110aa565b9050919050565b7f45524332303a206d696e7420616d6f756e74206d75737420626520677265617460008201527f6572207468616e20300000000000000000000000000000000000000000000000602082015250565b6000611149602983610cf7565b9150611154826110ed565b604082019050919050565b600060208201905081810360008301526111788161113c565b9050919050565b7f45524332303a2073656e742076616c7565206d7573742062652067726561746560008201527f72207468616e2030000000000000000000000000000000000000000000000000602082015250565b60006111db602883610cf7565b91506111e68261117f565b604082019050919050565b6000602082019050818103600083015261120a816111ce565b9050919050565b7f4e487b7100000000000000000000000000000000000000000000000000000000600052601160045260246000fd5b60008160011c9050919050565b6000808291508390505b60018511156112975780860481111561127357611272611211565b5b60018516156112825780820291505b808102905061129085611240565b9450611257565b94509492505050565b6000826112b0576001905061136c565b816112be576000905061136c565b81600181146112d457600281146112de5761130d565b600191505061136c565b60ff8411156112f0576112ef611211565b5b8360020a91508482111561130757611306611211565b5b5061136c565b5060208310610133831016604e8410600b84101617156113425782820a90508381111561133d5761133c611211565b5b61136c565b61134f848484600161124d565b9250905081840481111561136657611365611211565b5b81810290505b9392505050565b600061137e82610e01565b915061138983610e01565b92506113b67fffffffffffffffffffffffffffffffffffffffffffffffffffffffffffffffff84846112a0565b905092915050565b60006113c982610e01565b91506113d483610e01565b92508282026113e281610e01565b915082820484148315176113f9576113f8611211565b5b5092915050565b7f4e487b7100000000000000000000000000000000000000000000000000000000600052601260045260246000fd5b600061143a82610e01565b915061144583610e01565b92508261145557611454611400565b5b828204905092915050565b7f45524332303a20746f6b656e20616d6f756e74206d757374206265206772656160008201527f746572207468616e203000000000000000000000000000000000000000000000602082015250565b60006114bc602a83610cf7565b91506114c782611460565b604082019050919050565b600060208201905081810360008301526114eb816114af565b9050919050565b7f45524332303a20617070726f76652066726f6d20746865207a65726f2061646460008201527f7265737300000000000000000000000000000000000000000000000000000000602082015250565b600061154e602483610cf7565b9150611559826114f2565b604082019050919050565b6000602082019050818103600083015261157d81611541565b9050919050565b7f45524332303a20617070726f766520746f20746865207a65726f20616464726560008201527f7373000000000000000000000000000000000000000000000000000000000000602082015250565b60006115e0602283610cf7565b91506115eb82611584565b604082019050919050565b6000602082019050818103600083015261160f816115d3565b9050919050565b7f45524332303a207472616e736665722066726f6d20746865207a65726f20616460008201527f6472657373000000000000000000000000000000000000000000000000000000602082015250565b6000611672602583610cf7565b915061167d82611616565b604082019050919050565b600060208201905081810360008301526116a181611665565b9050919050565b7f45524332303a207472616e7366657220746f20746865207a65726f206164647260008201527f6573730000000000000000000000000000000000000000000000000000000000602082015250565b6000611704602383610cf7565b915061170f826116a8565b604082019050919050565b60006020820190508181036000830152611733816116f7565b9050919050565b7f45524332303a207472616e7366657220616d6f756e742065786365656473206260008201527f616c616e63650000000000000000000000000000000000000000000000000000602082015250565b6000611796602683610cf7565b91506117a18261173a565b604082019050919050565b600060208201905081810360008301526117c581611789565b9050919050565b60006117d782610e01565b91506117e283610e01565b92508282019050808211156117fa576117f9611211565b5b92915050565b7f45524332303a206d696e7420746f20746865207a65726f206164647265737300600082015250565b6000611836601f83610cf7565b915061184182611800565b602082019050919050565b6000602082019050818103600083015261186581611829565b905091905056fea26469706673582212203b30470df0c8d87edf6321586d6cdd7f9c7654b93ee4f8827be1ee855819366464736f6c634300081b0033",
  "linkReferences": {},
  "deployedLinkReferences": {}
}